:020000040800F2
:1000000000500020B1320008FD2800080329000834
:10001000092900080F290008152900080000000020
:100020000000000000000000000000001B29000884
:100030002729000800000000332900083F29000894
:10004000F9320008F9320008F9320008F9320008E4
:10005000F9320008F9320008F9320008F9320008D4
:10006000F9320008F9320008F9320008F9320008C4
:10007000F9320008F9320008F9320008F9320008B4
:10008000F9320008F9320008F9320008F9320008A4
:10009000F9320008F9320008F9320008F932000894
:1000A000F9320008F9320008F93200085129000835
:1000B000F9320008F9320008F9320008F932000874
:1000C000F9320008F9320008F9320008F932000864
:1000D000F9320008F9320008F9320008F932000854
:1000E000F9320008F9320008F93200080000000077
:1000F0000000000000000000000000000000000000
:0C01000000000000000000005FF808F1A3
:1001100010B5054C237833B9044B13B10448AFF341
:1001200000800123237010BD80000020000000002B
:100130006061000808B5034B1BB103490348AFF3E6
:10014000008008BD000000008400002060610008FD
:1001500010F8012B11F8013B012A28BF9A42F7D071
:10016000D01A7047034613F8012B002AFBD1181A46
:100170000138704781F0004102E000BF83F0004386
:1001800030B54FEA41044FEA430594EA050F08BF32
:1001900090EA020F1FBF54EA000C55EA020C7FEAF6
:1001A000645C7FEA655C00F0E2804FEA5454D4EB73
:1001B0005555B8BF6D420CDD2C4480EA020281EA3D
:1001C000030382EA000083EA010180EA020281EA75
:1001D0000303362D88BF30BD11F0004F4FEA0131C7
:1001E0004FF4801C4CEA113102D0404261EB4101D6
:1001F00013F0004F4FEA03334CEA133302D052425C
:1002000063EB430394EA050F00F0A780A4F1010417
:10021000D5F1200E0DDB02FA0EFC22FA05F2801851
:1002200041F1000103FA0EF2801843FA05F3594137
:100230000EE0A5F120050EF1200E012A03FA0EFCB6
:1002400028BF4CF0020C43FA05F3C01851EBE371E0
:1002500001F0004507D54FF0000EDCF1000C7EEBFD
:1002600000006EEB0101B1F5801F1BD3B1F5001F3B
:100270000CD349085FEA30004FEA3C0C04F101045A
:100280004FEA445212F5800F80F09A80BCF1004F83
:1002900008BF5FEA500C50F1000041EB045141EA05
:1002A000050130BD5FEA4C0C404141EB0101013CCE
:1002B00028BFB1F5801FE9D291F0000F04BF0146BD
:1002C0000020B1FA81F308BF2033A3F10B03B3F18F
:1002D00020020CDA0C3208DD02F1140CC2F10C021F
:1002E00001FA0CF021FA02F10CE002F11402D8BF7D
:1002F000C2F1200C01FA02F120FA0CFCDCBF41EA49
:100300000C019040E41AA2BF01EB0451294330BD17
:100310006FEA04041F3C1CDA0C340EDC04F11404F4
:10032000C4F1200220FA04F001FA02F340EA0300CB
:1003300021FA04F345EA030130BDC4F10C04C4F111
:10034000200220FA02F001FA04F340EA03002946F1
:1003500030BD21FA04F0294630BD94F0000F83F43B
:10036000801306BF81F480110134013D4EE77FEA1E
:10037000645C18BF7FEA655C29D094EA050F08BF6A
:1003800090EA020F05D054EA000C04BF194610464B
:1003900030BD91EA030F1EBF0021002030BD5FEA8F
:1003A000545C05D14000494128BF41F0004130BDB7
:1003B00014F580043CBF01F5801130BD01F000450B
:1003C00045F0FE4141F470014FF0000030BD7FEA7E
:1003D000645C1ABF194610467FEA655C1CBF0B4679
:1003E000024650EA013406BF52EA033591EA030F90
:1003F00041F4002130BD00BF90F0000F04BF002188
:10040000704730B54FF4806404F132044FF00005BA
:100410004FF0000150E700BF90F0000F04BF002133
:10042000704730B54FF4806404F1320410F0004599
:1004300048BF40424FF000013EE700BF42004FEA94
:10044000E2014FEA31014FEA02701FBF12F07F4311
:1004500093F07F4F81F06051704732F07F4208BFC8
:10046000704793F07F4F04BF41F40021704730B5CF
:100470004FF4607401F0004521F000411CE700BF1B
:1004800050EA010208BF704730B54FF000050AE09E
:1004900050EA010208BF704730B511F0004502D59F
:1004A000404261EB41014FF4806404F132045FEAA1
:1004B000915C3FF4D8AE4FF003025FEADC0C18BF4A
:1004C00003325FEADC0C18BF033202EBDC02C2F13C
:1004D000200300FA03FC20FA02F001FA03FE40EACE
:1004E0000E0021FA02F11444BDE600BF70B54FF0D2
:1004F000FF0C4CF4E06C1CEA11541DBF1CEA1355B0
:1005000094EA0C0F95EA0C0F00F0DEF82C4481EA17
:10051000030621EA4C5123EA4C5350EA013518BF37
:1005200052EA033541F4801143F4801338D0A0FB24
:1005300002CE4FF00005E1FB02E506F00042E0FBD1
:1005400003E54FF00006E1FB03569CF0000F18BFD7
:100550004EF0010EA4F1FF04B6F5007F64F540747F
:1005600004D25FEA4E0E6D4146EB060642EAC62112
:1005700041EA55514FEAC52040EA5E504FEACE2E7F
:10058000B4F1FD0C88BFBCF5E06F1ED8BEF1004F82
:1005900008BF5FEA500E50F1000041EB045170BDFE
:1005A00006F0004646EA010140EA020081EA030142
:1005B000B4EB5C04C2BFD4EB0C0541EA045170BD3E
:1005C00041F480114FF0000E013C00F3AB8014F1B8
:1005D000360FDEBF002001F0004170BDC4F1000401
:1005E000203C35DA0C341BDC04F11404C4F1200582
:1005F00000FA05F320FA04F001FA05F240EA0200DD
:1006000001F0004221F0004110EBD37021FA04F612
:1006100042EB06015EEA430E08BF20EAD37070BDCC
:10062000C4F10C04C4F1200500FA04F320FA05F02B
:1006300001FA04F240EA020001F0004110EBD3702D
:1006400041F100015EEA430E08BF20EAD37070BD9D
:10065000C4F1200500FA05F24EEA020E20FA04F376
:1006600001FA05F243EA020321FA04F001F0004125
:1006700021FA04F220EA020000EBD3705EEA430E96
:1006800008BF20EAD37070BD94F0000F0FD101F0C5
:100690000046400041EB010111F4801F08BF013CFE
:1006A000F7D041EA060195F0000F18BF704703F03C
:1006B0000046520043EB030313F4801F08BF013DC3
:1006C000F7D043EA0603704794EA0C0F0CEA13557F
:1006D00018BF95EA0C0F0CD050EA410618BF52EA39
:1006E0004306D1D181EA030101F000414FF000003F
:1006F00070BD50EA410606BF1046194652EA43064D
:1007000019D094EA0C0F02D150EA013613D195EAC0
:100710000C0F05D152EA03361CBF104619460AD108
:1007200081EA030101F0004141F0FE4141F4700112
:100730004FF0000070BD41F0FE4141F4780170BD02
:1007400070B54FF0FF0C4CF4E06C1CEA11541DBF67
:100750001CEA135594EA0C0F95EA0C0F00F0A7F869
:10076000A4EB050481EA030E52EA03354FEA013196
:1007700000F088804FEA03334FF0805545EA1313A9
:1007800043EA12634FEA022245EA111545EA106571
:100790004FEA00260EF000419D4208BF964244F108
:1007A000FD0404F5407402D25B084FEA3202B61A27
:1007B00065EB03055B084FEA32024FF480104FF4FB
:1007C000002CB6EB020E75EB030E22BFB61A75466F
:1007D00040EA0C005B084FEA3202B6EB020E75EB02
:1007E000030E22BFB61A754640EA5C005B084FEA6A
:1007F0003202B6EB020E75EB030E22BFB61A754637
:1008000040EA9C005B084FEA3202B6EB020E75EB41
:10081000030E22BFB61A754640EADC0055EA060E02
:1008200018D04FEA051545EA16754FEA06164FEA45
:10083000C30343EA52734FEAC2025FEA1C1CC0D1F1
:1008400011F4801F0BD141EA00014FF000004FF07E
:10085000004CB6E711F4801F04BF01430020B4F13F
:10086000FD0C88BFBCF5E06F3FF6AFAEB5EB030CF7
:1008700004BFB6EB020C5FEA500C50F1000041EBF4
:10088000045170BD0EF0004E4EEA113114EB5C04C1
:10089000C2BFD4EB0C0541EA045170BD41F4801194
:1008A0004FF0000E013C90E645EA060E8DE60CEA9C
:1008B000135594EA0C0F08BF95EA0C0F3FF43BAFB9
:1008C00094EA0C0F0AD150EA01347FF434AF95EA70
:1008D0000C0F7FF425AF104619462CE795EA0C0F54
:1008E00006D152EA03353FF4FDAE1046194622E721
:1008F00050EA410618BF52EA43067FF4C5AE50EAFB
:1009000041047FF40DAF52EA43057FF4EBAE12E7EA
:100910004A0011D212F5001211D20DD56FF478737E
:10092000B3EB62520ED44FEAC12343F0004343EAD3
:10093000505323FA02F070474FF00000704750EA1E
:10094000013002D14FF0FF3070474FF00000704788
:1009500080B586B000AF00237B6007F1080300215B
:100960000A461A800A469A7000237B610523FB60C1
:1009700002F01CFD386102F00FFC0021012002F0A2
:100980008BFB454802F0B0FBFB68DBB20121184647
:1009900002F082FB02F00AFD02463B69D31A42F2E2
:1009A0001072934201D9002371E001F099FB0346D4
:1009B000FB72FB7A002B68D002F0F8FC3861FB7AFE
:1009C0002F2B35D9FB7A392B32D87B69052B57DC95
:1009D0007B695A1C7A6107F118021344FA7A03F80A
:1009E000142C3A1D7B69134400221A702A2002F04D
:1009F000ABFB7B69062B43D1C82002F0E1FC3B1D19
:100A000019462648FFF7A4FB0346002B01D101231A
:100A10003DE002F0C1FB0021032002F03DFB204835
:100A200002F062FB4FF47A7002F0CAFC00232EE061
:100A3000FB7A2A2B25D17B69002B1FDD7B69013BCB
:100A40007B613A1D7B69134400221A70FB68DAB29D
:100A50007B69DBB21344DBB20121184602F01CFBB8
:100A6000202002F071FBFB68DAB27B69DBB2134431
:100A7000DBB20121184602F00FFB02E0002306E082
:100A800000BF642002F09CFC84E700BF82E71846A8
:100A90001837BD4680BD00BF78610008D4660008E5
:100AA0008861000880B483B000AF78607B681E4A1C
:100AB000934231D07B681C4A93422FD87B681B4AF3
:100AC000934229D07B68194A934227D87B68184AF9
:100AD000934221D07B68164A93421FD87B684CF220
:100AE0005032934218D07B684CF25032934215D862
:100AF0007B6844F6206293420ED07B6844F6206205
:100B000093420BD87B6841F28832934204D07B68D1
:100B100042F21072934201D1012300E000231846F3
:100B20000C37BD4680BC704720A10700400D030074
:100B3000A086010080B58CB002AF0346FB71FB7943
:100B4000184602F07DF878627B6A002B27D00021DE
:100B5000002002F0A1FA7B6A1B781A467B6A0133F7
:100B600007F10C00009313460F4A162104F098FE7B
:100B700007F10C03184602F0B7FA0121002002F039
:100B80008BFA7B6A113307F10C00084A162104F036
:100B900087FE07F10C03184602F0A6FA00E000BF3A
:100BA0002837BD4680BD00BF94610008A0610008E1
:100BB00080B58AB002AF0346FB71FB79184602F09C
:100BC0003FF8F861FB69002B26D00021002002F0DD
:100BD00063FAFB695B6A07F10800114A112104F00E
:100BE0005FFE07F10803184602F07EFA012100209B
:100BF00002F052FAFB699A6AFB691B7807F1080058
:100C000000931346074A112104F04AFE07F1080336
:100C1000184602F069FA00E000BF2037BD4680BDEB
:100C2000A8610008BC61000880B584B000AF094B22
:100C30001A683B460849184604F066FE01210A205E
:100C400002F02AFA3B46184602F04EFA00BF10376F
:100C5000BD4680BD9C000020D061000880B588B0F2
:100C600000AF03460A46FB711346BB71FB79184679
:100C700001F0E6FFF861FB69002B3AD0002100206B
:100C800002F00AFABB79002B08D1FB695B6A07F115
:100C900008001A4A112104F003FE07E0FB695B6AB1
:100CA00007F10800164A112104F0FAFD07F10803C4
:100CB000184602F019FA0121002002F0EDF9BB7983
:100CC000012B08D1FB699B6A07F108000D4A11212D
:100CD00004F0E6FD07E0FB699B6A07F108000A4A99
:100CE000112104F0DDFD07F10803184602F0FCF9BC
:100CF00000E000BF2037BD4680BD00BFD8610008BE
:100D0000E8610008F86100080862000880B590B04A
:100D100000AF264B1B68002B07D107F12403244AA0
:100D20001121184604F0BCFD07E0204B1B6807F1B9
:100D30002400204A112104F0B3FD0121002002F01B
:100D4000ABF907F1100310222021184604F0A0FD92
:100D5000002387F82030154B1A683B461649184681
:100D600004F0D2FD3B461846FFF7FCF90346BB638F
:100D70000023FB63BB6B0F2B06DCBB6BC3F11003C3
:100D8000DA0F13445B10FB63FB6B07F11002134493
:100D9000BA6B3946184604F06DFD07F1100318468A
:100DA00002F0A2F900BF4037BD4680BDA800002078
:100DB000186200082C6200083462000880B500AF99
:100DC000084B01221A604FF47A7001F0CFFF01F056
:100DD00015FE01F025F94FF4FA6002F0F1FA00BFB8
:100DE00080BD00BF0000002080B5A2B000AFBD4BA9
:100DF0001B68013B122B00F26E8701A252F823F010
:100E00004D0E0008790E00081B0F00084B0F00085C
:100E100053100008E1110008891100087D14000832
:100E2000C3140008DB1400080B150008A9170008FC
:100E3000D9170008391800089F180008CD180008B5
:100E4000D1190008FB190008231C0008A64B1B68D9
:100E5000012B40F04287A34B02221A6002F05EF899
:100E600002F09AF9A14B00221A6002F09FFA0346A1
:100E70009F4A136000F031BF01F0A4FB322002F062
:100E80009FFA02F093FA0346994A1360994B1B8824
:100E9000002B34D0974B1B88142B30D8934B1B68F6
:100EA000002B05D102F082FA0346904A136031E02C
:100EB00002F07CFA02468D4B1B68D31A40F6B7321B
:100EC000934227D900224FF400518B4803F001F8D8
:100ED000844B03221A6002F033F802F05DF987496F
:100EE000002002F0BFF98649012002F0BBF940F66C
:100EF000B83001F04FFF7D4B00221A600AE07B4BB7
:100F000000221A6001224FF400517B4802F0E1FFF9
:100F100000F008BF00BF00F005BF7A4B1B68012B33
:100F200040F0DD866F4B04221A6002F035F9764BF3
:100F300001221A70744B1B781846FFF7FBFD47F22D
:100F4000305001F03BFF00F0CABE704B1B68012B14
:100F500006D1644B01221A60FFF730FF00F0E2BEB9
:100F600001F0BEF8034687F8573097F85730002B4A
:100F700000F0B78647F2305001F020FF97F8573065
:100F8000552B13D1604B1B78013BDAB25E4B1A70C4
:100F90005D4B1B78002B02D15B4B10221A705A4B11
:100FA0001B781846FFF7C6FD00F09BBE97F8573038
:100FB000442B13D1544B1B780133DAB2524B1A70C5
:100FC000514B1B78102B02D94F4B01221A704E4BFC
:100FD0001B781846FFF7AEFD00F083BE97F8573038
:100FE000232B0BD13F4B05221A6002F0D5F8464B5C
:100FF0001B781846FFF7DCFD00F073BE97F85730FA
:10100000522B40F06E86FFF7A3FC38653B6D002B3A
:1010100012D0344B0F221A6002F0BEF83C49002077
:1010200002F020F93B49012002F01CF940F6B830EB
:1010300001F0D8FE00F055BE02F0AEF8324B1B783E
:101040001846FFF777FD47F2305001F0B7FE00F089
:1010500048BE2E4B1B68012B0FD1224B04221A6075
:1010600002F09AF8284B1B781846FFF763FD47F209
:10107000305001F0A3FE00F055BE01F031F80346F8
:1010800087F85E3097F85E30002B00F02C8647F230
:10109000305001F093FE97F85E30232B5FD11A4B4E
:1010A0001B78184601F0CCFDB865BB6D5B6A002B60
:1010B00036D10C4B07221A6002F06EF80021022094
:1010C00001F0EAFF144802F00FF80121012001F0BD
:1010D000E3FF124802F008F840F6B83001F082FE53
:1010E00000F001BE00000020E4000020B800002055
:1010F000B4000020DA00002000100140386200082F
:1011000044620008EC00002004000020F4000020ED
:10111000586200086862000874620008846200086F
:10112000C14B06221A6002F037F802F035F80021B0
:10113000002001F0B1FFBD4801F0D6FF01210020E1
:1011400001F0AAFFBA4801F0CFFFBA4B00221A60A3
:10115000B94B00221A70FFF767FD00F0C4BD97F885
:101160005E302A2B40F0BF85AF4B04221A6002F09C
:1011700013F8B24B1B781846FFF7DCFC47F23050EF
:1011800001F01CFE00F0AFBDAD4B1B68012B0DD173
:10119000A54B05221A6001F0FFFFA84B1B781846EB
:1011A000FFF706FD47F2305001F008FE00F098FF0F
:1011B000034687F8663097F86630002B00F0958577
:1011C000994B05221A6001F0E7FF9C4B1B781846EB
:1011D000FFF7EEFC47F2305001F0F0FD00F085BD66
:1011E000984B1B68012B0FD18F4B05221A6001F021
:1011F000D3FF924B1B781846FFF7DAFC47F23050CA
:1012000001F0DCFD00F08EBD00F06AFF034687F8B8
:10121000653097F86530002B00F0698547F2305053
:1012200001F0CCFD97F865302F2B19D997F8653070
:10123000392B15D87F4B1B68834A934200F2F1800B
:101240007C4B1A6813469B0013445B001A4697F8C0
:1012500065301344303B774A1360FFF7E5FCE0E06C
:1012600097F865302A2B1FD1724B1B68002B0BD0CF
:10127000704B1B68754AA2FB0323DB086D4A1360A1
:10128000FFF7D2FC00F033BD674B05221A6001F076
:1012900083FF6A4B1B781846FFF78AFC47F23050F1
:1012A00001F08CFD00F023BD97F86530232B40F052
:1012B0001E85624B1B78184601F0C2FC386600237D
:1012C000C7F884305B4B1B68002B03D0594B1B685D
:1012D000092B15D9584B1B780133DAB2564B1A70CB
:1012E0000123C7F88430504B08221A6001F054FFE4
:1012F0000021002001F0D0FE554801F0F5FE58E035
:101300003B6E5A6A4B4B1B689A4226D20123C7F8A0
:101310008430494B1B780133DAB2474B1A70424B89
:1013200008221A6001F038FF0021002001F0B4FE0D
:10133000484801F0D9FE3B6E5B6A07F13C00464A23
:10134000112104F0ADFA0121022001F0A5FE07F100
:101350003C03184601F0C8FE2BE0334B0A221A600A
:101360003B6E9B6A334A126802FB03F33B4A1360ED
:101370003B4B00221A603B4B00221A603A4B002282
:101380001A7001F009FF3949002001F06BFF334B5F
:101390001B6807F12800364A112104F081FA07F191
:1013A00028031946012001F05DFF40F6B83001F036
:1013B00019FDD7F88430002B1BD01F4B1B78042B52
:1013C00017D9194B09221A6001F0E6FE002101200D
:1013D00001F062FE274801F087FE0121002001F0A4
:1013E0005BFE254801F080FE40F6B83001F0FAFCC3
:1013F00017E0D7F88430002B00F0798440F6B8303D
:1014000001F0F0FC00F06CFE034687F85F3097F8BF
:101410005F30002B00F06B84034B08221A6000F051
:1014200066BC00F064BC00BF0000002094620008AD
:10143000A46200089C000020A000002004000020FE
:10144000FC000020F40000209F860100CDCCCCCC15
:10145000B0620008C4620008D8620008A40000203E
:10146000A8000020AC000020B0000020E8620008C6
:10147000F86200080063000810630008B64B1B68A0
:10148000012B40F03684B54B06221A6001F084FE31
:101490000021002001F000FEB14801F025FE0121ED
:1014A000002001F0F9FDAF4801F01EFEAE4B002216
:1014B0001A60FFF7B9FB47F2305001F07FFC00F0F3
:1014C00018BCA54B1B68012B40F01584A34B0122CF
:1014D0001A60FFF773FC00F00EBC9F4B1B68012BDA
:1014E00040F00B849D4B0B221A6001F055FE9F4982
:1014F000002001F0B7FE9E4B00221A60FFF706FCA9
:1015000047F2305001F05AFCF7E39A4B1B68012B6D
:101510001FD1924B06221A6001F03EFE00210020EE
:1015200001F0BAFD8E4801F0DFFD0121002001F03D
:10153000B3FD8C4801F0D8FD8B4B00221A608E4B16
:1015400000221A70FFF770FB47F2305001F036FCB2
:10155000E8E300F0C5FD034687F8733097F8733071
:10156000002B00F0CC8347F2305001F027FC97F8B5
:1015700073302F2B19D997F87330392B15D87C4B32
:101580001B687E4A934200F2E580794B1A68134645
:101590009B0013445B001A4697F873301344303BAA
:1015A000734A1360FFF7B2FBD4E097F87330232B34
:1015B00040F084806E4B1B681846FFF773FA0346B1
:1015C000002B2ED16E4B1B780133DAB26C4B1A70A4
:1015D0006B4B1B78042B05D9604B01221A60FFF777
:1015E000EDFB8CE35D4B0C221A6001F0D5FD6549E3
:1015F000002001F037FE6449012001F033FE40F67F
:10160000B83001F0EFFB00F06BFD034687F8673060
:1016100097F86730002B00F07283504B0C221A6051
:101620006DE35A4B1A68524B1B681344574A1360B8
:10163000564B1A68564B1B689A4220D2474B0D22D4
:101640001A60534B1A68514B1B68D31ABB6601F0E2
:10165000A3FD5049002001F005FE07F11400BB6E08
:101660004D4A112104F01CF907F114031946012019
:1016700001F0F8FD40F6B83001F0B4FB3FE3374B22
:101680000D221A60414B1A68414B1B68D31AFB6646
:1016900001F082FD4149002001F0E4FD3846FB6E77
:1016A0003F4A112104F0FCF83B461946012001F0A5
:1016B000D9FD40F6B83001F095FB20E397F8733080
:1016C0002A2B40F01C832A4B1B68002B1FD1234B75
:1016D00006221A6001F060FD0021002001F0DCFC10
:1016E0001F4801F001FD0121002001F0D5FC1D483B
:1016F00001F0FAFC1C4B00221A601F4B00221A70EA
:10170000FFF792FA47F2305001F058FBF7E2184B1E
:101710001B68244AA2FB0323DB08154A1360144B01
:101720001B68002B13D0124B1B68092B0FD8104BD2
:1017300018680F4B19681B4BA3FB0123DA081346EB
:101740009B0013445B00CA1A831A094A1360FFF70F
:10175000DDFAD4E2D3E200BFFC000020000000204C
:1017600094620008A46200089C0000202063000826
:10177000A8000020F4000020A0000020FFC99A3B30
:10178000B00000203063000840630008AC00002077
:10179000A40000204C630008F862000858630008A9
:1017A00068630008CDCCCCCC9D4B1B68012B40F06E
:1017B000A8829C4B0B221A6001F0EEFC9A49002093
:1017C00001F050FD994B00221A60FFF79FFA47F293
:1017D000305001F0F3FA94E2914B1B68012B40F07A
:1017E0009282934B1A68934B1B689A4212D28D4B8C
:1017F0000B221A6001F0D0FC8B49002001F032FD71
:101800008A4B00221A60FFF781FA47F2305001F04C
:10181000D5FA78E2834B0E221A6001F0BDFC8649AE
:10182000002001F01FFD8549012001F01BFD40F65D
:10183000B83001F0D7FA66E2794B1B68012B40F013
:1018400064827F4B1B78184601F0FAF978677B6F4A
:10185000002B0FD07B6F5A6A7A4B1B689A4209D3D0
:10186000774B18787B6F5A6A764B1B68D31A1946E8
:1018700001F002FA734B00221A606A4B04221A60CC
:1018800001F08AFC6E4B01221A706D4B1B781846D2
:10189000FFF750F947F2305001F090FA35E2604B13
:1018A0001B68012B40F033825E4B10221A6001F05E
:1018B00073FC634B01221A70614B1B781846FFF7CB
:1018C00039F94EF6602001F079FA20E25E4B1B6890
:1018D000012B11D1534B11221A6001F05DFC5B49C1
:1018E000002001F0BFFC5A49012001F0BBFC40F68A
:1018F000B83001F077FA15E200F0F2FB034687F802
:101900007A3097F87A30002B00F003824EF6602090
:1019100001F054FA97F87A30552B12D1484B1B78C6
:10192000013BDAB2464B1A70454B1B78002B02D1B3
:10193000434B10221A70424B1B781846FFF7FAF8F7
:10194000E7E197F87A30442B12D13D4B1B780133F5
:10195000DAB23B4B1A703A4B1B78102B02D9384B3A
:1019600001221A70364B1B781846FFF7E3F8D0E1D6
:1019700097F87A30232B14D12A4B12221A6001F0E7
:101980000BFC344B00221A702D4B1B78314A127815
:1019900011461846FFF762F94EF6602001F00EFA84
:1019A000B7E197F87A302A2B40F0B3811D4B132210
:1019B0001A6001F0F1FB2849002001F053FC27498F
:1019C000012001F04FFC47F2305001F0F7F9A0E19F
:1019D000134B1B68012B40F09E81124B04221A60AE
:1019E000174B01221A70164B1B781846FFF7A2F806
:1019F00047F2305001F0E2F98DE1134B1B68012BE7
:101A00002ED1084B10221A6001F0C6FB0C4B1B783C
:101A10001846FFF78FF84EF6602001F0CFF981E10C
:101A2000FC0000200000002020630008A800002027
:101A3000AC000020A4000020786300084462000885
:101A4000040000209C000020F400002088630008AF
:101A500098630008B1000020A8630008BC63000878
:101A6000B24B1B78184601F0EBF8F867FB6F002BC0
:101A700000F0538100F034FB034687F87B3097F881
:101A80007B30002B00F04B814EF6602001F096F980
:101A9000A74B1B78002B59D197F87B304C2B16D1D4
:101AA000FB6F5B6A002B00F03A81A04B1A78FB6F4A
:101AB0005B6A013B1946104601F0DEF89B4B1B7830
:101AC0009B4A127811461846FFF7C8F827E197F8A5
:101AD0007B30522B16D1FB6F5B6A082B00F21F8103
:101AE000924B1A78FB6F5B6A01331946104601F07E
:101AF000C3F88E4B1B788E4A127811461846FFF7B2
:101B0000ADF80CE197F87B30442B0BD1884B0122C8
:101B10001A70864B1B78864A127811461846FFF7D2
:101B20009DF8FCE097F87B302A2B40F0F880814B41
:101B300010221A6001F030FB7C4B1B781846FEF730
:101B4000F9FF4EF6602001F039F9E8E0784B1B7898
:101B5000012B40F0E48097F87B304C2B18D1FB6FC1
:101B60009B6AB3F57A7FC0F0DA80704B1A78FB6F0E
:101B70009B6AA3F57A731946104601F09BF86B4BEC
:101B80001B786B4A127811461846FFF767F8C6E0D3
:101B900097F87B30522B18D1FB6F9B6A664A9342B1
:101BA00000F2BD80614B1A78FB6F9B6A03F57A7374
:101BB0001946104601F07EF85C4B1B785C4A12789F
:101BC00011461846FFF74AF8A9E097F87B30232B17
:101BD00016D101F0E1FA5949002001F043FB40F22F
:101BE000DC5001F0EDFB534B10221A604F4B1B7879
:101BF0001846FEF79FFF4EF6602001F0DFF88EE0FA
:101C000097F87B30552B40F08A80494B00221A70A0
:101C1000464B1B78464A127811461846FFF71EF8C5
:101C20007DE0474B1B68012B15D1424B04221A6003
:101C300001F0B2FA4349002001F014FB4FF47A702E
:101C400001F0BEFB394B01221A70384B1B78184645
:101C5000FEF770FF66E000F043FA034687F8833032
:101C600097F88330002B5CD047F2305001F0A6F893
:101C700097F88330232B1BD12E4B04221A6001F0DE
:101C80008BFA3049002001F0EDFA4FF47A7001F040
:101C900097FB01F081FA254B01221A70234B1B7828
:101CA0001846FEF747FF47F2305001F087F838E05A
:101CB00097F883302A2B34D11E4B10221A6001F082
:101CC0006BFA1A4B1B781846FEF734FF4EF660206D
:101CD00001F074F825E000BF24E000BF22E000BF5F
:101CE00020E000BF1EE000BF1CE000BF1AE000BF04
:101CF00018E000BF16E000BF14E000BF12E000BF14
:101D000010E000BF0EE000BF0CE000BF0AE000BF23
:101D100008E000BF06E000BF04E000BF02E000BF33
:101D200000E000BF00BF8837BD4680BD0400002032
:101D3000B100002000000020B7820100CC63000841
:101D4000F4000020DC63000880B588B000AFF860C4
:101D50007A601A460B467B8113463B811B4AFB681F
:101D600013601A4A7B899380184A7B689360174AEC
:101D70003B89938107F1100300221A605A609A6030
:101D8000DA603B8901221946786802F0A2F87B8963
:101D900001221946F86802F09CF83B893B61012357
:101DA0007B610223FB6107F110031946786801F09B
:101DB00039FE7B893B6107F110031946F86801F091
:101DC00031FE00BF2037BD4680BD00BFBC000020F3
:101DD00080B584B000AF3B4600221A605A609A601A
:101DE000DA60094B9B883B6000237B600123BB606A
:101DF000054B1B683A461146184601F013FE00BF1A
:101E00001037BD4680BD00BFBC00002080B483B049
:101E100000AF786003E07B68013B7B6000BF7B68BC
:101E2000002BF8D100BF00BF0C37BD4680BC704707
:101E300080B584B000AF094B9B883B6001237B6079
:101E40000223FB60054B1B683A461146184601F019
:101E5000E9FD00BF1037BD4680BD00BFBC000020BB
:101E600080B500AFFFF7E4FF154B1B68144A91885B
:101E70000122184602F02DF8114B9B68104A9189F7
:101E80000122184602F025F86420FFF7BFFF0C4B33
:101E90001B680B4A91880022184602F01AF8642049
:101EA000FFF7B4FF064B9B68054A9189002218464C
:101EB00002F00FF86420FFF7A9FF00BF80BD00BF4C
:101EC000BC00002080B500AFFFF7B2FF154B1B68C8
:101ED000144A91880022184601F0FBFF114B9B68C1
:101EE000104A91890122184601F0F3FF6420FFF7A0
:101EF0008DFF0C4B1B680B4A91880122184601F09C
:101F0000E8FF6420FFF782FF064B9B68054A918932
:101F10000022184601F0DDFF6420FFF777FF00BFC5
:101F200080BD00BFBC00002080B582B000AF0023A0
:101F3000FB71FFF74DFF164B9B68154A91890122F3
:101F4000184601F0C6FF3220FFF760FF104B1B68F8
:101F50000F4A92881146184601F0A4FF0346FB7110
:101F60003220FFF753FF0A4B9B68094A91890022F0
:101F7000184601F0AEFF3220FFF748FFFB79012B36
:101F800001D1002300E0012318460837BD4680BD7B
:101F9000BC00002080B584B000AF0346FB71FFF7A2
:101FA00047FF0023FB7331E0FA79FB7B02FA03F36E
:101FB00003F08003002B08D1184B1B68174A918847
:101FC0000022184601F085FF07E0144B1B68134AF6
:101FD00091880122184601F07CFF104B9B680F4A44
:101FE00091890122184601F074FF6420FFF70EFF6B
:101FF0000A4B9B68094A91890022184601F069FF43
:102000006420FFF703FFFB7B0133FB73FB7B072B94
:10201000CAD900BF00BF1037BD4680BDBC0000203C
:1020200080B586B000AF07F1080300221A605A603D
:102030009A60DA60274B9B69264A43F00403936158
:10204000244B9B6903F004037B607B68214B9B69F5
:10205000204A43F0100393611E4B9B6903F0100369
:102060003B603B680F23BB600123FB6000233B61A7
:1020700002237B6107F108031946174801F0D2FCDF
:10208000F023BB600023FB6001233B6107F10803E1
:102090001946114801F0C6FC4FF40053BB60012300
:1020A000FB6000233B6102237B6107F108031946B3
:1020B0000A4801F0B7FC01220F21074801F009FF8F
:1020C00001224FF40051054801F003FF00BF18370B
:1020D000BD4680BD001002400008014000100140D4
:1020E00080B582B000AF00237B6049E001220F2160
:1020F000274801F0EEFE274A7B6832F813300022B1
:102100001946234801F0E5FE012001F059F90023AA
:102110003B602FE0204A3B6832F8133019461C48D8
:1021200001F0C0FE0346002B21D1142001F048F934
:10213000194A3B6832F813301946154801F0B2FECF
:102140000346002B13D100BF134A3B6832F813300B
:1021500019460F4801F0A6FE0346002BF4D00F4AA3
:102160007B689B001A443B6813441B780CE03B6877
:1021700001333B603B68032BCCDD7B6801337B6024
:102180007B68032BB2DD002318460837BD4680BDAF
:1021900000080140EC660008F4660008DC660008F0
:1021A00080B582B000AF0123FB7110E0FB799BB2D8
:1021B0005B0099B20A230322094802F02FF8034674
:1021C000002B01D1012306E0FB790133FB71FB7980
:1021D0007E2BEBD9002318460837BD4680BD00BFD3
:1021E0001001002080B582B000AF0123FB7110E028
:1021F000FB799BB25B0099B20A230322094802F0E3
:102200000DF80346002B01D1FB7906E0FB79013381
:10221000FB71FB797E2BEBD9002318460837BD46AE
:1022200080BD00BF1001002080B582B000AF01F07A
:1022300065F800F067F800F02FF900F0A9F800F059
:10224000D5F800F0B5F901224FF400512A4801F009
:1022500040FEC82001F0B4F8FFF7A2FF0346FB7070
:10226000FB78002B08D14FF40051234801F049FEC0
:10227000962001F0A5F8F6E7FFF7B4FF0346BB7020
:10228000BB78002B08D14FF400511B4801F039FEF8
:10229000642001F095F8F6E700237B6016E0002249
:1022A0004FF40051144801F014FE4FF4FA7001F09D
:1022B00087F801224FF400510F4801F00AFE4FF455
:1022C000FA7001F07DF87B6801337B607B68022B3C
:1022D000E5DD0A4801F072FF4023094A80210848E1
:1022E000FFF732FDBB78184600F07CFFFEF766FD75
:1022F000FEF77AFDFCE700BF00100140100100204E
:10230000000C014080B590B000AF07F118032822FF
:102310000021184603F0BCFA3B1D00221A605A60E7
:102320009A60DA601A610123BB614FF48033FB616C
:1023300000233B620123BB6202237B634FF48033A3
:10234000BB634FF4E013FB6307F11803184602F078
:102350000DF90346002B01D000F00CF90F237B6030
:102360000223BB600023FB604FF480633B610023CA
:102370007B613B1D0221184602F078FB0346002BCF
:1023800001D000F0F7F800BF4037BD4680BD000027
:1023900080B500AF124B134A1A60114B124A5A60B3
:1023A0000F4B00229A600E4B0022DA600C4B4FF468
:1023B00080421A610A4B00225A61094B00229A613D
:1023C000074B0022DA61064B00221A62044801F032
:1023D000B1FD0346002B01D000F0CCF800BF80BD5A
:1023E0001001002000540040A086010080B586B096
:1023F00000AF07F1100300221A605A603B4600222A
:102400001A605A609A60DA60214B224A1A60204BA7
:1024100047225A601E4B00229A601D4B4FF6FE72F7
:10242000DA601B4B00221A61194B00225A61184BCB
:1024300000229A61164802F093FC0346002B01D05B
:1024400000F098F800233B6100237B6107F1100343
:1024500019460F4803F074F90346002B01D000F031
:1024600089F800233B6001237B600023BB600023CD
:10247000FB603B4600221946054802F0BDFE0346BC
:10248000002B01D000F076F800BF1837BD4680BDA4
:1024900064010020002C014080B588B000AF07F136
:1024A000100300221A605A609A60DA602E4B9B6912
:1024B0002D4A43F0100393612B4B9B6903F01003EB
:1024C000FB60FB68284B9B69274A43F0200393611C
:1024D000254B9B6903F02003BB60BB68224B9B69C3
:1024E000214A43F0040393611F4B9B6903F00403EB
:1024F0007B607B681C4B9B691B4A43F0080393611C
:10250000194B9B6903F008033B603B6800224FF4C2
:102510000051164801F0DDFC002240F2FF21144872
:1025200001F0D7FC4FF400533B6101237B61002392
:10253000BB610223FB6107F1100319460B4801F050
:1025400071FA40F2FF233B6101237B610023BB61F1
:102550000223FB6107F110031946054801F062FAF6
:1025600000BF2037BD4680BD001002400010014072
:102570000008014080B400AF72B600BFFEE7000063
:1025800080B483B000AF0346FB80084B1B68002279
:102590005A6200BF054B1B685A6AFB889A42F9D3FE
:1025A00000BF00BF0C37BD4680BC704764010020EF
:1025B00080B500AF0021024802F022FC00BF80BDC0
:1025C0006401002080B500AF01224FF400710B4878
:1025D00001F07FFC0A20FFF7D3FF00224FF40071C7
:1025E000064801F076FC064B1B68DA68044B1B6852
:1025F00042F00202DA6000BF80BD00BF0008014067
:10260000640100200000000080B582B000AF786057
:102610007B681B7F012B40F08380454B1B78002B90
:102620001AD10021786802F083FE0346414A136004
:102630003F4B01221A707B681B681A6A7B681B6813
:1026400022F00A021A627B681B681A6A7B681B68A0
:1026500042F002021A6263E0354B1B78012B5FD116
:102660000021786802F064FE0346334A13607B68F9
:102670001B6800225A62304B1A682E4B1B689A4224
:1026800007D92D4B1A682B4B1B68D31A2B4A1360A2
:102690000FE0284B1A68284B1B689A4209D9264B31
:1026A0001A68244B1B68D31A03F57F43FF33234A70
:1026B0001360224B1B681846FDF79EFE1AA3D3E950
:1026C0000023FDF713FF02460B46104619464FF054
:1026D00000024FF08043FEF733F802460B461046E7
:1026E0001946FEF715F903469AB2154B1A80104B9E
:1026F00000221A707B681B681A6A7B681B6822F0CC
:102700000A021A627B681A687B681B68126A1A627E
:102710000C4B1B68DA680B4B1B6822F00202DA6074
:1027200000BF0837BD4680BD9CC420B07268A13F81
:10273000D8000020CC000020D0000020D4000020D1
:10274000DA0000206401002080B485B000AF154B92
:102750009B69144A43F001039361124B9B6903F098
:102760000103BB60BB680F4BDB690E4A43F080532B
:10277000D3610C4BDB6903F080537B607B680A4BB1
:102780005B68FB60FB6823F0E063FB60FB6843F081
:102790000073FB60044AFB68536000BF1437BD46FA
:1027A00080BC7047001002400000014080B588B036
:1027B00000AF786007F1100300221A605A609A6037
:1027C000DA607B681B68154A934223D1144B9B69DE
:1027D000134A43F008039361114B9B6903F008030C
:1027E000FB60FB68C0233B6112237B610323FB6119
:1027F00007F1100319460B4801F014F9084BDB6987
:10280000074A43F40013D361054BDB6903F400135B
:10281000BB60BB6800BF2037BD4680BD0054004090
:1028200000100240000C014080B582B000AF78601B
:102830007B681B680A4A93420DD10A4BDB69094A3F
:1028400023F40013D3614021074801F06FFA80217F
:10285000054801F06BFA00BF0837BD4680BD00BFD8
:102860000054004000100240000C014080B588B0C8
:1028700000AF786007F1100300221A605A609A6076
:10288000DA607B681B681A4A93422CD1194B9B690A
:10289000184A43F400639361164B9B6903F4006389
:1028A000FB60FB68134B9B69124A43F0040393617E
:1028B000104B9B6903F00403BB60BB684FF480734B
:1028C0003B6100237B610023BB6107F110031946C4
:1028D000094801F0A7F8002200211B2000F06BFE40
:1028E0001B2000F084FE00BF2037BD4680BD00BF26
:1028F000002C0140001002400008014080B400AFED
:10290000FEE780B400AFFEE780B400AFFEE780B41E
:1029100000AFFEE780B400AFFEE780B400AF00BFB9
:10292000BD4680BC704780B400AF00BFBD4680BCD0
:10293000704780B400AF00BFBD4680BC704780B513
:1029400000AF00F021FD00F061FA00BF80BD000083
:1029500080B500AF024802F05FFB00BF80BD00BF42
:10296000640100200000000080B58AB000AF00F0D4
:10297000C9FE0023BB601E4B3B6101237B613A1DF6
:1029800007F108031146184600F0A4FF16A3D3E987
:1029900000231749022000F045FE164B3B62B0238E
:1029A000FB6100237B6213E07A6A134B13449B00A4
:1029B000BB617B6A9B003A6A13441B681A464FF05E
:1029C0000003B969022000F02DFE7B6A01337B62AF
:1029D0007A6AFB699A42E7D300F0BAFE00BF283753
:1029E000BD4680BDAFF30080EFBEADDE000000004D
:1029F00000FC0008AC010020013F0002B0B590B01F
:102A000000AF7B4B1B68BB63BB6B7A4A93421AD106
:102A1000794B7B63794B3B63B023FB620023FB6301
:102A20000CE0FB6B9B007A6B1A44FB6B9B00396BD1
:102A30000B4412681A60FB6B0133FB63FA6BFB6A91
:102A40009A42EED3D0E06D4A6D4B14461D460FCD31
:102A50000FC40FCD0FC495E8070084E80700674B4B
:102A6000684A03F12C0415460FCD0FC40FCD0FC4D7
:102A700095E8070084E80700604B634A03F15804B7
:102A800015460FCD0FC40FCD0FC495E8070084E89D
:102A900007005A4B5D4A03F1840415460FCD0FC45D
:102AA0000FCD0FC495E8070084E80700534B584A40
:102AB00003F1B00415460FCD0FC40FCD0FC495E838
:102AC000070084E807004D4B524A03F1DC04154629
:102AD0000FCD0FC40FCD0FC495E8070084E80700A1
:102AE000464B4D4A03F5847415460FCD0FC40FCDE8
:102AF0000FC495E8070084E80700404B474A03F5F8
:102B00009A7415460FCD0FC40FCD0FC495E807007A
:102B100084E80700394B424A03F5B07415460FCDDF
:102B20000FC40FCD0FC495E8070084E80700334BAE
:102B30003C4A03F5C67415460FCD0FC40FCD0FC424
:102B400095E8070084E807002C4B374A03F5DC744E
:102B500015460FCD0FC40FCD0FC495E8070084E8CC
:102B60000700264B314A03F5F27415460FCD0FC40A
:102B70000FCD0FC495E8070084E807001F4B2C4ACF
:102B800003F5047415460FCD0FC40FCD0FC495E89F
:102B9000070084E80700194B264A03F50F74154611
:102BA0000FCD0FC40FCD0FC495E8070084E80700D0
:102BB000124B214A03F51A7415460FCD0FC40FCDE1
:102BC0000FC495E8070084E807000C4B1B4A03F587
:102BD000257415460FCD0FC40FCD0FC495E807001F
:102BE00084E80700FFF7C0FE00BF4037BD46B0BD18
:102BF00000FC0008EFBEADDE04FC0008AC010020C4
:102C0000EC6300081864000844640008706400085D
:102C10009C640008C8640008F4640008206500088B
:102C20004C65000878650008A4650008D0650008B8
:102C3000FC650008286600085466000880660008E5
:102C400080B483B000AF0346FB71FB79002B02D048
:102C5000FB79102B01D9002306E0FB79013B2C22E4
:102C600002FB03F3034A134418460C37BD4680BCED
:102C7000704700BFAC01002080B584B000AF0346B0
:102C80003960FB71FB791846FFF7DAFFF860FB68E3
:102C9000002B02D03B68092B01D9002305E0FB681B
:102CA0003A685A62FFF760FE012318461037BD46A6
:102CB00080BD000080B584B000AF03463960FB7171
:102CC000FB791846FFF7BCFFF860FB68002B03D0C8
:102CD0003B68074A934201D9002305E0FB683A6844
:102CE0009A62FFF741FE012318461037BD4680BDAA
:102CF000A086010080B586B000AF7860144A154BFD
:102D0000D31A7B617B693B61134B1B68002B02D19B
:102D1000114B124A1A60104B1A687B6813443A69C7
:102D20009A4207D202F07CFD03460C221A604FF053
:102D3000FF3309E0084B1B68FB60074B1A687B6890
:102D40001344054A1360FB6818461837BD4680BD1A
:102D50000050002000040000DC000020A804002037
:102D600080B400AF00BFBD4680BC704780B483B064
:102D700000AF7860054A7B681360054B00221A603B
:102D800000BF0C37BD4680BC704700BFE00000208C
:102D9000E400002080B483B000AF7860054A7B680F
:102DA0001360054B00221A6000BF0C37BD4680BC83
:102DB000704700BFE8000020EC00002080B483B022
:102DC00000AF7860054A7B681360054B00221A60EB
:102DD00000BF0C37BD4680BC704700BFF00000202C
:102DE000F400002080B483B000AF7860054A7B68AF
:102DF0001360054B00221A6000BF0C37BD4680BC33
:102E0000704700BFF8000020FC00002080B400AF35
:102E1000294B1B68002B0BDD274B1B68013B264A07
:102E20001360254B1B68002B02DC244B01221A6027
:102E3000234B1B68002B0BDD214B1B68013B204AF9
:102E400013601F4B1B68002B02DC1E4B01221A6013
:102E50001D4B1B68002B0BDD1B4B1B68013B1A4AEB
:102E60001360194B1B68002B02DC184B01221A60FF
:102E7000174B1B68002B0BDD154B1B68013B144ADD
:102E80001360134B1B68002B02DC124B01221A60EB
:102E9000114B1B68002B0BDD0F4B1B68013B0E4ACF
:102EA00013600D4B1B68002B02DC0C4B01221A60D7
:102EB00000BFBD4680BC7047E0000020E400002059
:102EC000E8000020EC000020F0000020F4000020CA
:102ED000F8000020FC000020000100200401002078
:102EE00080B582B000AF0346FB71FEF7B9FF0A4B15
:102EF0001B785B00DBB21846FFF74CF8FFF714F8BD
:102F0000FB791846FFF746F8FFF70EF8FEF7DAFFF1
:102F100000BF0837BD4680BD6D04002080B500AFFE
:102F2000064B1B7823F00803DAB2044B1A70034BEC
:102F30001B781846FFF7D4FF00BF80BD0C000020AF
:102F400080B500AF064B1B7843F00803DAB2044BA0
:102F50001A70034B1B781846FFF7C2FF00BF80BDF5
:102F60000C00002080B582B000AF184B1B7843F0F6
:102F70000403DAB2154B1A7000237B6003E000BF34
:102F80007B6801337B607B68312BF8DD0F4B1B784E
:102F90001846FFF7A5FF0D4B1B7823F00403DAB2A8
:102FA0000A4B1A7000233B6003E000BF3B6801330B
:102FB0003B603B68632BF8DD044B1B781846FFF73A
:102FC0008FFF00BF0837BD4680BD00BF0C0000204A
:102FD00080B483B000AF0346FB71224B1B7803F033
:102FE0000F03DAB21F4B1A70FB791B015BB203F0BF
:102FF00010035AB21B4B1B785BB213435BB2DAB2BD
:10300000184B1A70FB791B015BB203F020035AB214
:10301000144B1B785BB213435BB2DAB2114B1A70DC
:10302000FB791B015BB203F040035AB20D4B1B78D6
:103030005BB213435BB2DAB20A4B1A70FB791B0125
:103040005BB223F07F035AB2064B1B785BB213438B
:103050005BB2DAB2034B1A7000BF0C37BD4680BCBE
:10306000704700BF0C00002080B582B000AF03465F
:10307000FB71FB791B09DBB21846FFF7A9FFFFF7CD
:1030800071FFFB791846FFF7A3FFFFF76BFF00BF47
:103090000837BD4680BD000090B587B000AF03463D
:1030A0000A46FB711346BB710E4B07F108040FCBA8
:1030B00084E80F00BB799B0007F11802134453F812
:1030C000103CDAB2FB791344DBB25BB263F07F03EE
:1030D0005BB2DBB21846FFF7C7FF00BF1C37BD4627
:1030E00090BD00BFAC66000880B582B000AF7860CC
:1030F0001FE0144B1B7843F00103DAB2114B1A7036
:10310000104B1B781846FFF7EBFE7B681B781846C0
:10311000FFF7AAFF0B4B1B7823F00103DAB2094B30
:103120001A70084B1B781846FFF7DAFE7B680133EC
:103130007B607B681B78002BDBD100BF00BF0837AA
:10314000BD4680BD0C00002080B582B000AF786025
:10315000104B1B7843F00103DAB20E4B1A700D4B83
:103160001B781846FFF7BCFE7B68DBB21846FFF7FA
:103170007BFF084B1B7823F00103DAB2054B1A7072
:10318000044B1B781846FFF7ABFE00BF0837BD465F
:1031900080BD00BF0C00002080B500AF00210020E2
:1031A000FFF77AFF0E48FFF79FFF01210020FFF78E
:1031B00073FF0B48FFF798FF02210020FFF76CFF19
:1031C0000748FFF791FF03210020FFF765FF044840
:1031D000FFF78AFF00210020FFF75EFF00BF80BDE0
:1031E000BC66000880B582B000AF0346FB711B4A85
:1031F000FB7913701A4B1B7823F00203DAB2184BD9
:103200001A70174B1B7823F00103DAB2144B1A70B3
:103210000320FFF7DDFEFFF7A5FE052000F0D0F844
:10322000FFF7A0FE052000F0CBF8FFF79BFE022081
:10323000FFF7CEFEFFF796FE2820FFF715FF0C20C4
:10324000FFF712FF0620FFF70FFF00210020FFF716
:1032500023FF00BF0837BD4680BD00BF6D040020BE
:103260000C00002080B584B000AF78603960386809
:10327000FCF778FF0346BB600023FB60BB680F2BA5
:1032800006DCBB68C3F11003DA0F13445B10FB606C
:10329000FB68DBB27A68D2B211461846FFF7FCFE33
:1032A0003868FFF721FF00BF1037BD4680BD000022
:1032B000FFF756FD0B480C490C4A002302E0D45896
:1032C000C4500433C4188C42F9D3094A094C002372
:1032D00001E013600432A242FBD302F0A7FAFEF72A
:1032E000A3FF7047000000207C00002064670008F6
:1032F00080000020A8040020FEE7000080B500AF99
:10330000084B1B68074A43F010031360032000F0CA
:1033100047F90F2000F008F8FFF716FA00231846C7
:1033200080BD00BF0020024080B582B000AF786051
:10333000124B1A68124B1B7819464FF47A73B3FB81
:10334000F1F3B2FBF3F3184600F05FF90346002BEC
:1033500001D001230EE07B680F2B0AD80022796888
:103360004FF0FF3000F027F9064A7B681360002316
:1033700000E0012318460837BD4680BD0800002044
:10338000140000201000002080B400AF054B1B7813
:103390001A46054B1B681344034A136000BFBD4621
:1033A00080BC7047140000207004002080B400AF7F
:1033B000024B1B681846BD4680BC70477004002055
:1033C00080B584B000AF7860FFF7F0FFB8607B682D
:1033D000FB60FB68B3F1FF3F05D00A4B1B781A4630
:1033E000FB681344FB6000BFFFF7E0FF0246BB68C9
:1033F000D31AFA689A42F7D800BF00BF1037BD460B
:1034000080BD00BF1400002080B485B000AF78609C
:103410007B6803F00703FB600C4BDB68BB60BA689A
:103420004FF6FF031340BB60FB681A02BB681343EF
:1034300043F0BF6343F40033BB60044ABB68D3600E
:1034400000BF1437BD4680BC704700BF00ED00E0F0
:1034500080B400AF044BDB681B0A03F00703184677
:10346000BD4680BC704700BF00ED00E080B483B073
:1034700000AF0346FB7197F90730002B0BDBFB799C
:1034800003F01F02064997F907305B09012000FA93
:1034900002F241F8232000BF0C37BD4680BC7047C4
:1034A00000E100E080B483B000AF03463960FB71F7
:1034B00097F90730002B0ADB3B68DAB20C4997F921
:1034C00007301201D2B20B4483F800230AE03B68B4
:1034D000DAB20849FB7903F00F03043B1201D2B2C0
:1034E0000B441A7600BF0C37BD4680BC704700BF46
:1034F00000E100E000ED00E080B489B000AFF860CA
:10350000B9607A60FB6803F00703FB61FB69C3F1F4
:103510000703042B28BF0423BB61FB690433062B7C
:1035200002D9FB69033B00E000237B614FF0FF32CF
:10353000BB6902FA03F3DA43BB681A407B699A401D
:103540004FF0FF317B6901FA03F3D9437B680B40ED
:10355000134318462437BD4680BC704780B582B0FF
:1035600000AF78607B68013BB3F1807F01D301231A
:103570000FE00A4A7B68013B53600F214FF0FF3098
:10358000FFF790FF054B00229A60044B07221A6058
:10359000002318460837BD4680BD00BF10E000E09C
:1035A00080B582B000AF78607868FFF72DFF00BF6C
:1035B0000837BD4680BD80B586B000AF0346B96010
:1035C0007A60FB7300237B61FFF742FF78617A68C2
:1035D000B9687869FFF790FF024697F90F301146F6
:1035E0001846FFF75FFF00BF1837BD4680BD80B5A6
:1035F00082B000AF0346FB7197F907301846FFF71A
:1036000035FF00BF0837BD4680BD80B582B000AF32
:1036100078607868FFF7A2FF034618460837BD4672
:1036200080BD0000F0B587B000AFF860B960C7E9B1
:1036300000230123FB750023BB7500237B752F4BF3
:103640001B7E012B01D1022354E02C4B01221A7660
:103650004CF2503000F0A8F80346FB75FB7D002BC0
:1036600044D1FB68012B02D101237B7507E0FB6885
:10367000022B02D102237B7501E004237B7500231A
:10368000BB752DE0BB7D5A00BB6802EB030CBB7D14
:103690001901D7E90023C1F12006A1F1200022FA87
:1036A00001F403FA06F6344323FA00F0044323FA44
:1036B00001F5A3B21946604600F05AF84CF25030BA
:1036C00000F072F80346FB750D4B1B690C4A23F0A2
:1036D00001031361FB7D002B07D1BB7D0133BB755B
:1036E000BA7D7B7D9A42CDD300E000BF034B002220
:1036F0001A76FB7D18461C37BD46F0BD78040020C5
:103700000020024080B483B000AF0023FB710D4B5A
:103710001B6903F08003002B0DD00A4B0A4A5A6044
:10372000084B0A4A5A60074B1B6903F08003002BC1
:1037300001D00123FB71FB7918460C37BD4680BCD4
:10374000704700BF0020024023016745AB89EFCDE1
:1037500080B400AF054B1B69044A43F0800313613A
:1037600000231846BD4680BC704700BF00200240C1
:1037700080B483B000AF78600B467B80084B00229A
:10378000DA61084B1B69074A43F0010313617B6848
:103790007A881A8000BF0C37BD4680BC704700BFD6
:1037A000780400200020024080B584B000AF78602B
:1037B000FFF7FCFDF86010E07B68B3F1FF3F0CD031
:1037C0007B68002B07D0FFF7F1FD0246FB68D31A98
:1037D0007A689A4201D2032325E0154BDB6803F097
:1037E0000103002BE8D1124BDB6803F02003002B10
:1037F00002D00F4B2022DA600D4BDB6803F0100380
:10380000002B0BD10A4BDB6903F00103002B05D120
:10381000074BDB6803F00403002B03D000F00AF829
:10382000012300E0002318461037BD4680BD00BFCD
:103830000020024080B483B000AF00237B60234BA4
:10384000DB6803F01003002B09D0214BDB6943F048
:1038500002031F4AD3617B6843F010037B601B4B5C
:10386000DB6803F00403002B09D0194BDB6943F03C
:103870000103174AD3617B6843F004037B60134B59
:10388000DB6903F00103002B0BD0114BDB6943F024
:1038900004030F4AD3610D4BDB690C4A23F001038B
:1038A000D3617B6840F20112934206D1074BDB697A
:1038B000064A23F00103D36102E0044A7B68D36027
:1038C00000BF0C37BD4680BC704700BF00200240DF
:1038D0007804002080B584B000AF7860396001239F
:1038E000FB730023BB602F4B1B7E012B01D10223F6
:1038F00053E02C4B01221A767B681B68022B16D1F1
:103900004CF25030FFF750FF0346002B41D101200D
:1039100000F04CF84CF25030FFF746FF0346FB73C3
:10392000214B1B69204A23F00403136131E04CF260
:103930005030FFF739FF0346002B2AD13B684FF088
:10394000FF321A607B689B68BB6019E0B86800F0C2
:1039500049F84CF25030FFF727FF0346FB73124B38
:103960001B69114A23F002031361FB7B002B03D078
:103970003B68BA681A600CE0BB6803F58063BB6003
:103980007B68DB689A027B689B681344BA689A423A
:10399000DCD3044B00221A76FB7B18461037BD4659
:1039A00080BD00BF780400200020024080B483B0B6
:1039B00000AF7860094B0022DA61094B1B69084AA5
:1039C00043F004031361064B1B69054A43F04003AF
:1039D000136100BF0C37BD4680BC704778040020DF
:1039E0000020024080B483B000AF78600B4B00220F
:1039F000DA610B4B1B690A4A43F002031361084A60
:103A00007B685361064B1B69054A43F04003136111
:103A100000BF0C37BD4680BC704700BF7804002053
:103A20000020024080B48BB000AF78603960002382
:103A30007B6200233B6269E101227B6A02FA03F3A5
:103A4000FB613B681B68FA691340BB61BA69FB699B
:103A50009A4240F058813B685B689A4A93425ED034
:103A6000984A934275D8984A934258D0964A9342BE
:103A70006FD8964A934252D0944A934269D8944A56
:103A800093424CD0924A934263D8924A934246D092
:103A9000904A93425DD8122B2AD8122B59D801A2F2
:103AA00052F823F01F3B0008F93A00080B3B0008CE
:103AB0004D3B0008533B0008533B0008533B0008B4
:103AC000533B0008533B0008533B0008533B00089E
:103AD000533B0008533B0008533B0008533B00088E
:103AE000533B0008533B0008013B0008153B00080E
:103AF000794A934213D02CE03B68DB683B6229E0B3
:103B00003B68DB6804333B6224E03B68DB680833D6
:103B10003B621FE03B68DB680C333B621AE03B68AA
:103B20009B68002B02D104233B6213E03B689B6837
:103B3000012B05D108233B627B68FA691A6109E011
:103B400008233B627B68FA695A6103E000233B6209
:103B500000E000BFBB69FF2B01D87B6801E07B68F8
:103B600004337B61BB69FF2B02D87B6A9B0002E0B8
:103B70007B6A083B9B003B617B691A680F213B69AC
:103B800001FA03F3DB431A40396A3B6901FA03F394
:103B90001A437B691A603B685B6803F08053002B13
:103BA00000F0B1804D4B9B694C4A43F00103936197
:103BB0004A4B9B6903F00103BB60BB68484A7B6AC0
:103BC0009B08023352F82330FB607B6A03F0030347
:103BD0009B000F2202FA03F3DB43FA681340FB60F9
:103BE0007B68404A934213D07B683F4A93420DD092
:103BF0007B683E4A934207D07B683D4A934201D19D
:103C0000032306E0042304E0022302E0012300E092
:103C100000237A6A02F0030292009340FA68134389
:103C2000FB602F497B6A9B080233FA6841F8232026
:103C30003B685B6803F48013002B06D02D4B9A6819
:103C40002C49BB6913438B6006E02A4B9A68BB6919
:103C5000DB43284913408B603B685B6803F4001327
:103C6000002B06D0234BDA682249BB691343CB6093
:103C700006E0204BDA68BB69DB431E491340CB608A
:103C80003B685B6803F40033002B06D0194B5A687D
:103C90001849BB6913434B6006E0164B5A68BB6971
:103CA000DB43144913404B603B685B6803F480338B
:103CB000002B21D00F4B1A680E49BB6913430B60D0
:103CC00021E000BF0000321000003110000022107F
:103CD000000021100000121000001110001002401E
:103CE0000000014000080140000C014000100140AC
:103CF00000140140000401400B4B1A68BB69DB4310
:103D0000094913400B607B6A01337B623B681A6888
:103D10007B6A22FA03F3002B7FF48EAE00BF00BF54
:103D20002C37BD4680BC70470004014080B489B088
:103D300000AF786039600023FB619AE00122FB69E3
:103D400002FA03F33A681340BB61BB69002B00F031
:103D50008D804E4AFB699B08023352F823307B6109
:103D6000FB6903F003039B000F2202FA03F37A6955
:103D700013407B617B68464A934213D07B68454A77
:103D800093420DD07B68444A934207D07B68434AF4
:103D9000934201D1032306E0042304E0022302E05E
:103DA000012300E00023FA6902F00302920093402D
:103DB0007A699A4232D13A4B1A68BB69DB43384977
:103DC00013400B60364B5A68BB69DB4334491340E0
:103DD0004B60334BDA68BB69DB4331491340CB603E
:103DE0002F4B9A68BB69DB432D4913408B60FB69FD
:103DF00003F003039B000F2202FA03F37B61234AC3
:103E0000FB699B08023352F823107B69DA431F4891
:103E1000FB699B080A40023340F82320BB69FF2B53
:103E200001D87B6801E07B6804333B61BB69FF2BF1
:103E300002D8FB699B0002E0FB69083B9B00FB602A
:103E40003B691A680F21FB6801FA03F3DB431A4050
:103E50000421FB6801FA03F31A433B691A607B688B
:103E6000DA68BB69DB431A407B68DA60FB690133BF
:103E7000FB613A68FB6922FA03F3002B7FF45EAF23
:103E800000BF00BF2437BD4680BC70470000014022
:103E900000080140000C01400010014000140140E6
:103EA0000004014080B485B000AF78600B467B8091
:103EB0007B689A687B881340002B02D00123FB7338
:103EC00001E00023FB73FB7B18461437BD4680BC22
:103ED000704780B483B000AF78600B467B80134698
:103EE0007B707B78002B03D07A887B681A6103E0B3
:103EF0007B881A047B681A6100BF0C37BD4680BC02
:103F0000704780B485B000AF78600B467B807B68DB
:103F1000DB68FB607A88FB6813401A04FB68D943AE
:103F20007B880B401A437B681A6100BF1437BD467B
:103F300080BC704780B584B000AF78607B68002B90
:103F400001D101232BE17B6893F83D30DBB2002BDC
:103F500006D17B68002283F83C207868FEF726FCB7
:103F60007B68242283F83D207B681B681A687B6885
:103F70001B6822F001021A607B681B681A687B6864
:103F80001B6842F400421A607B681B681A687B68F1
:103F90001B6822F400421A6000F0B0FEF8607B68F3
:103FA0005B68814A934207D8FB68804A934294BF7A
:103FB00001230023DBB206E0FB687D4A934294BFF5
:103FC00001230023DBB2002B01D00123E7E0FB68D3
:103FD000784AA2FB03239B0CBB607B681B685B6871
:103FE00023F03F017B681B68BA680A435A607B680C
:103FF0001B681B6A23F03F017B685B686A4A934237
:1040000002D8BB68013309E0BB684FF4967202FB2B
:1040100003F3694AA2FB03239B0901337A68126800
:104020000B4313627B681B68DB6923F44F4222F069
:10403000FF027B685B685C498B4219D8FB68591E9C
:104040007B685B685B00B1FBF3F3591C40F6FC73C3
:104050000B40002B0AD0FB68591E7B685B685B0035
:10406000B1FBF3F30133C3F30B0351E004234FE03F
:104070007B689B68002B11D1FB68581E7B685968D0
:104080000B465B000B44B0FBF3F30133C3F30B03AC
:10409000002B0CBF01230023DBB212E0FB68581E8B
:1040A0007B6859680B469B000B4499000B44B0FB9E
:1040B000F3F30133C3F30B03002B0CBF01230023E5
:1040C000DBB2002B01D0012322E07B689B68002B30
:1040D0000ED1FB68581E7B6859680B465B000B4489
:1040E000B0FBF3F30133C3F30B0343F400430FE0DE
:1040F000FB68581E7B6859680B469B000B4499006F
:104100000B44B0FBF3F30133C3F30B0343F440431D
:10411000796809681343CB617B681B681B6823F0CF
:10412000C0017B68DA697B681B6A1A437B681B687D
:104130000A431A607B681B689B6823F4034323F0DF
:10414000FF037A6811697A68D26811437A68126845
:104150000B4393607B681B68DB6823F0FF017B687F
:104160005A697B689B691A437B681B680A43DA605B
:104170007B681B681A687B681B6842F001021A6042
:104180007B6800221A647B68202283F83D207B68CC
:1041900000221A637B68002283F83E200023184621
:1041A0001037BD4680BD00BFA08601007F841E0081
:1041B000FF083D0083DE1B43D34D621080B582B003
:1041C00000AF78607B68002B01D1012321E07B6880
:1041D000242283F83D207B681B681A687B681B6873
:1041E00022F001021A607868FEF71EFB7B6800224D
:1041F0001A647B68002283F83D207B6800221A63E2
:104200007B68002283F83E207B68002283F83C20F4
:10421000002318460837BD4680BD000080B58AB02F
:1042200002AFF8607A603B600B467B81FFF7BEF817
:10423000F8610023BB61FB6893F83D30DBB2202BB3
:1042400040F01181FB690093192301228849F86825
:1042500000F012F90346002B01D0022304E1FB68B1
:1042600093F83C30012B01D10223FDE0FB680122D1
:1042700083F83C20FB681B681B6803F00103012BDB
:1042800007D0FB681B681A68FB681B6842F00102D4
:104290001A60FB681B681A68FB681B6822F40062DE
:1042A0001A60FB68242283F83D20FB6800221A6410
:1042B000FB68704ADA62FB681B681A68FB681B6857
:1042C00042F480721A60FB6900933B6800224FF051
:1042D0000111F86800F0D0F80346002B0DD0FB6800
:1042E0001B681B6803F48073B3F5807F03D1FB6800
:1042F0004FF400721A640323B6E07B89DBB21A46DE
:10430000FB681B6802F0FE021A61FFF74FF8F861C4
:10431000FB681B685B6903F00203022B0CBF0123DF
:104320000023DBB2FB75FB681B685B6903F48063E9
:10433000B3F5806F0CBF01230023DBB2BB7525E012
:10434000FFF734F80246FB69D31A3A689A4202D35F
:104350003B68002B03D1FB68A02283F83D20FB685B
:104360001B685B6903F00203022B0CBF01230023CF
:10437000DBB2FB75FB681B685B6903F48063B3F514
:10438000806F0CBF01230023DBB2BB75FB6893F881
:104390003D30DBB2A02B05D0FB7D002B02D1BB7DD5
:1043A000002BCDD0FB68202283F83D20FB681B68E2
:1043B0005B6903F00203022B29D1FB681B681A68B2
:1043C000FB681B6842F400721A6000233B61FB68C3
:1043D0001B685B693B61FB681B689B693B613B69D0
:1043E000FB690093192301222149F86800F044F881
:1043F0000346002B01D0012336E0FB68202283F81E
:104400003D20FB68002283F83C2000232CE0FB6861
:104410001B681A68FB681B6842F400721A60FB682C
:104420001B686FF480625A61FB69009319230122B3
:104430000F49F86800F020F80346002B01D0012353
:1044400012E0BB690133BB61BA697B689A42FFF431
:1044500032AFFB68202283F83D20FB68002283F8FE
:104460003C20012300E0022318462037BD4680BDD2
:10447000020010000000FFFF80B584B000AFF860BC
:10448000B9603B601346FB7148E03B68B3F1FF3F06
:1044900044D0FEF78BFF0246BB69D31A3A689A42B2
:1044A00002D33B68002B39D1BB681B0CDBB2012B5C
:1044B0000DD1FB681B685B69DA43BB6813409BB294
:1044C000002B0CBF01230023DBB21A460CE0FB6873
:1044D0001B689B69DA43BB6813409BB2002B0CBF7F
:1044E00001230023DBB21A46FB799A4216D1FB68FE
:1044F00000221A63FB68202283F83D20FB6800221B
:1045000083F83E20FB681B6C43F02002FB681A64B2
:10451000FB68002283F83C20012323E0BB681B0CCE
:10452000DBB2012B0DD1FB681B685B69DA43BB680A
:1045300013409BB2002B0CBF01230023DBB21A46B1
:104540000CE0FB681B689B69DA43BB6813409BB2B5
:10455000002B0CBF01230023DBB21A46FB799A42E1
:1045600093D0002318461037BD4680BD80B586B075
:1045700000AF78607B68002B01D101236CE27B687F
:104580001B6803F00103002B00F08780924B5B68EF
:1045900003F00C03042B0CD08F4B5B6803F00C036F
:1045A000082B12D18C4B5B6803F48033B3F5803F4A
:1045B0000BD1894B1B6803F40033002B6CD07B6854
:1045C0005B68002B68D1012346E27B685B68B3F52A
:1045D000803F06D1804B1B687F4A43F480331360D1
:1045E0002EE07B685B68002B0CD17B4B1B687A4A02
:1045F00023F480331360784B1B68774A23F48023BD
:1046000013601DE07B685B68B3F5A02F0CD1724B83
:104610001B68714A43F4802313606F4B1B686E4A1A
:1046200043F4803313600BE06B4B1B686A4A23F43E
:1046300080331360684B1B68674A23F48023136040
:104640007B685B68002B13D0FEF7B0FE386108E092
:10465000FEF7ACFE02463B69D31A642B01D9032353
:10466000FAE15D4B1B6803F40033002BF0D014E03B
:10467000FEF79CFE386108E0FEF798FE02463B69B3
:10468000D31A642B01D90323E6E1534B1B6803F4CF
:104690000033002BF0D100E000BF7B681B6803F003
:1046A0000203002B63D04C4B5B6803F00C03002B20
:1046B0000BD0494B5B6803F00C03082B1CD1464B15
:1046C0005B6803F48033002B16D1434B1B6803F067
:1046D0000203002B05D07B681B69012B01D001234D
:1046E000BAE13D4B1B6823F0F8027B685B69DB0095
:1046F000394913430B603AE07B681B69002B20D0DB
:10470000364B01221A60FEF751FE386108E0FEF7D1
:104710004DFE02463B69D31A022B01D903239BE1CC
:104720002D4B1B6803F00203002BF0D02A4B1B68B3
:1047300023F0F8027B685B69DB00274913430B60B9
:1047400015E0264B00221A60FEF730FE386108E0C3
:10475000FEF72CFE02463B69D31A022B01D9032334
:104760007AE11D4B1B6803F00203002BF0D17B683C
:104770001B6803F00803002B3AD07B689B69002B71
:1047800019D0174B01221A60FEF710FE386108E0BD
:10479000FEF70CFE02463B69D31A022B01D9032314
:1047A0005AE10D4B5B6A03F00203002BF0D00120AD
:1047B00000F0B8FA1CE00A4B00221A60FEF7F6FD82
:1047C00038610FE0FEF7F2FD02463B69D31A022B77
:1047D00008D9032340E100BF00100240000042421C
:1047E000800442429E4B5B6A03F00203002BE9D136
:1047F0007B681B6803F00403002B00F0A6800023F5
:10480000FB75974BDB6903F08053002B0DD1944B64
:10481000DB69934A43F08053D361914BDB6903F02A
:104820008053BB60BB680123FB758E4B1B6803F490
:104830008073002B18D18B4B1B688A4A43F480731A
:104840001360FEF7B3FD386108E0FEF7AFFD0246E6
:104850003B69D31A642B01D90323FDE0814B1B680C
:1048600003F48073002BF0D07B68DB68012B06D14A
:104870007B4B1B6A7A4A43F0010313622DE07B688D
:10488000DB68002B0CD1764B1B6A754A23F00103C1
:104890001362734B1B6A724A23F0040313621CE019
:1048A0007B68DB68052B0CD16D4B1B6A6C4A43F0AF
:1048B000040313626A4B1B6A694A43F001031362E3
:1048C0000BE0674B1B6A664A23F001031362644BDB
:1048D0001B6A634A23F0040313627B68DB68002BC6
:1048E00015D0FEF763FD38610AE0FEF75FFD024672
:1048F0003B69D31A41F28832934201D90323ABE0DA
:10490000574B1B6A03F00203002BEED014E0FEF7B6
:104910004DFD38610AE0FEF749FD02463B69D31AB6
:1049200041F28832934201D9032395E04C4B1B6A34
:1049300003F00203002BEED1FB7D012B05D1484B88
:10494000DB69474A23F08053D3617B68DB69002B26
:1049500000F08180424B5B6803F00C03082B61D0B0
:104960007B68DB69022B46D13F4B00221A60FEF7C1
:104970001DFD386108E0FEF719FD02463B69D31AB8
:10498000022B01D9032367E0354B1B6803F000734A
:10499000002BF0D17B681B6AB3F5803F08D1304B08
:1049A0005B6823F400327B689B682D4913434B609E
:1049B0002B4B5B6823F474127B68196A7B685B6A13
:1049C0000B43274913434B60274B01221A60FEF724
:1049D000EDFC386108E0FEF7E9FC02463B69D31ABA
:1049E000022B01D9032337E01D4B1B6803F0007332
:1049F000002BF0D02FE01C4B00221A60FEF7D6FCF3
:104A0000386108E0FEF7D2FC02463B69D31A022B5C
:104A100001D9032320E0124B1B6803F00073002B25
:104A2000F0D118E07B68DB69012B01D1012313E091
:104A30000B4B5B68FB60FB6803F480327B681B6A8E
:104A40009A4206D1FB6803F470127B685B6A9A4253
:104A500001D0012300E0002318461837BD4680BD71
:104A600000100240007000406000424280B584B0F7
:104A700000AF786039607B68002B01D10123D0E062
:104A80006A4B1B6803F007033A689A4210D9674BD8
:104A90001B6823F0070265493B6813430B60634BB7
:104AA0001B6803F007033A689A4201D00123B8E07B
:104AB0007B681B6803F00203002B20D07B681B6817
:104AC00003F00403002B05D0594B5B68584A43F4AC
:104AD000E06353607B681B6803F00803002B05D07C
:104AE000534B5B68524A43F460535360504B5B68CE
:104AF00023F0F0027B689B684D4913434B607B6851
:104B00001B6803F00103002B40D07B685B68012B1E
:104B100007D1474B1B6803F40033002B15D1012349
:104B20007FE07B685B68022B07D1414B1B6803F079
:104B30000073002B09D1012373E03D4B1B6803F088
:104B40000203002B01D101236BE0394B5B6823F09A
:104B500003027B685B68364913434B60FEF726FC13
:104B6000F8600AE0FEF722FC0246FB68D31A41F225
:104B70008832934201D9032353E02D4B5B6803F045
:104B80000C027B685B689B009A42EBD1274B1B6849
:104B900003F007033A689A4210D2244B1B6823F0B3
:104BA000070222493B6813430B60204B1B6803F04C
:104BB00007033A689A4201D0012332E07B681B6800
:104BC00003F00403002B08D0194B5B6823F4E06268
:104BD0007B68DB68164913434B607B681B6803F0F6
:104BE0000803002B09D0124B5B6823F460527B68EA
:104BF0001B69DB000E4913434B6000F021F80246AD
:104C00000B4B5B681B0903F00F030A49CB5C22FACC
:104C100003F3094A1360094B1B681846FEF784FB2F
:104C2000002318461037BD4680BD00BF002002405B
:104C300000100240FC660008080000201000002060
:104C400080B487B000AF0023FB600023BB6000236B
:104C50007B6100237B6000233B611E4B5B68FB6034
:104C6000FB6803F00C03042B02D0082B03D027E0D1
:104C7000194B3B6127E0FB689B0C03F00F03174ABD
:104C8000D35C7B60FB6803F48033002B10D0114BA6
:104C90005B685B0C03F00103114AD35CBB607B686B
:104CA0000D4A02FB03F2BB68B2FBF3F37B6104E045
:104CB0007B680C4A02FB03F37B617B693B6102E08A
:104CC000054B3B6100BF3B6918461C37BD4680BCA5
:104CD000704700BF0010024000127A0014670008FD
:104CE0002467000800093D0080B400AF024B1B6838
:104CF0001846BD4680BC70470800002080B500AF54
:104D0000FFF7F2FF0246054B5B681B0A03F007033F
:104D10000349CB5C22FA03F3184680BD0010024021
:104D20000C67000880B485B000AF78600A4B1B6840
:104D30000A4AA2FB03235B0A7A6802FB03F3FB60C7
:104D400000BFFB685A1EFA60002BF9D100BF00BFFC
:104D50001437BD4680BC704708000020D34D621058
:104D600080B582B000AF78607B68002B01D1012351
:104D700041E07B6893F83D30DBB2002B06D17B68C5
:104D8000002283F83C207868FDF770FD7B680222E2
:104D900083F83D207B681A687B6804331946104607
:104DA00000F02EFB7B68012283F846207B680122FD
:104DB00083F83E207B68012283F83F207B68012234
:104DC00083F840207B68012283F841207B68012220
:104DD00083F842207B68012283F843207B6801220C
:104DE00083F844207B68012283F845207B680122F8
:104DF00083F83D20002318460837BD4680BD0000DB
:104E000080B584B000AF786039600023FB733B68E5
:104E1000002B04D17B6893F83E30DBB213E03B6893
:104E2000042B04D17B6893F83F30DBB20BE03B6886
:104E3000082B04D17B6893F84030DBB203E07B6839
:104E400093F84130DBB2BB733B68002B04D17B6825
:104E500093F84230DBB213E03B68042B04D17B684B
:104E600093F84330DBB20BE03B68082B04D17B683E
:104E700093F84430DBB203E07B6893F84530DBB253
:104E80007B73BB7B012B02D17B7B012B01D00123E8
:104E9000B8E03B68002B04D17B68022283F83E20F7
:104EA00013E03B68042B04D17B68022283F83F2087
:104EB0000BE03B68082B04D17B68022283F840207A
:104EC00003E07B68022283F841203B68002B04D179
:104ED0007B68022283F8422013E03B68042B04D154
:104EE0007B68022283F843200BE03B68082B04D147
:104EF0007B68022283F8442003E07B68022283F867
:104F000045203B680C2B41D801A252F823F000BF8A
:104F1000454F00088D4F00088D4F00088D4F000849
:104F2000574F00088D4F00088D4F00088D4F000827
:104F3000694F00088D4F00088D4F00088D4F000805
:104F40007B4F00087B681B68DA687B681B6842F04F
:104F50000202DA601DE07B681B68DA687B681B6808
:104F600042F00402DA6014E07B681B68DA687B6850
:104F70001B6842F00802DA600BE07B681B68DA68A5
:104F80007B681B6842F01002DA6002E00123FB73C9
:104F900000BFFB7B002B34D17B681B680122396882
:104FA000184600F0A8FB7B681B68184A93420ED095
:104FB0007B681B68B3F1804F09D07B681B68144A7B
:104FC000934204D07B681B68124A934211D17B68DC
:104FD0001B689B6803F00703BB60BB68062B10D0FF
:104FE0007B681B681A687B681B6842F001021A60C4
:104FF00007E07B681B681A687B681B6842F0010247
:105000001A60FB7B18461037BD4680BD002C01405E
:10501000000400400008004080B584B000AF786014
:105020007B681B68DB68FB607B681B681B69BB6077
:10503000BB6803F00203002B20D0FB6803F00203DF
:10504000002B1BD07B681B686FF002021A617B6823
:1050500001221A777B681B689B6903F00303002B0E
:1050600003D07868FDF7D0FA05E0786800F0ADF974
:10507000786800F0B3F97B6800221A77BB6803F008
:105080000403002B20D0FB6803F00403002B1BD08B
:105090007B681B686FF004021A617B6802221A7732
:1050A0007B681B689B6903F44073002B03D078680E
:1050B000FDF7AAFA05E0786800F087F9786800F053
:1050C0008DF97B6800221A77BB6803F00803002B78
:1050D00020D0FB6803F00803002B1BD07B681B6803
:1050E0006FF008021A617B6804221A777B681B68DC
:1050F000DB6903F00303002B03D07868FDF784FA23
:1051000005E0786800F061F9786800F067F97B687D
:1051100000221A77BB6803F01003002B20D0FB6835
:1051200003F01003002B1BD07B681B686FF010028C
:105130001A617B6808221A777B681B68DB6903F4B5
:105140004073002B03D07868FDF75EFA05E07868BD
:1051500000F03BF9786800F041F97B6800221A778B
:10516000BB6803F00103002B0CD0FB6803F00103C4
:10517000002B07D07B681B686FF001021A6178680A
:1051800000F01AF9BB6803F08003002B0CD0FB6819
:1051900003F08003002B07D07B681B686FF0800250
:1051A0001A61786800F033FBBB6803F04003002B02
:1051B0000CD0FB6803F04003002B07D07B681B6812
:1051C0006FF040021A61786800F011F9BB6803F0D3
:1051D0002003002B0CD0FB6803F02003002B07D02A
:1051E0007B681B686FF020021A61786800F006FB8C
:1051F00000BF1037BD4680BD80B586B000AFF860F7
:10520000B9607A600023FB75FB6893F83C30012B92
:1052100001D1022388E0FB68012283F83C207B68EF
:10522000002B1BD1FB681868BB681968BB685A68FB
:10523000BB68DB6800F052F9FB681B689A69FB6881
:105240001B6822F00C029A61FB681B689969BB68B5
:105250009A68FB681B680A439A6160E07B68042BCC
:105260001CD1FB681868BB681968BB685A68BB68C2
:10527000DB6800F08DF9FB681B689A69FB681B68A6
:1052800022F440629A61FB681B689969BB689B685D
:105290001A02FB681B680A439A6140E07B68082B8E
:1052A0001BD1FB681868BB681968BB685A68BB6883
:1052B000DB6800F0A9F9FB681B68DA69FB681B680A
:1052C00022F00C02DA61FB681B68D969BB689A6836
:1052D000FB681B680A43DA6121E07B680C2B1CD158
:1052E000FB681868BB681968BB685A68BB68DB68EC
:1052F00000F0C5F9FB681B68DA69FB681B6822F4DB
:105300004062DA61FB681B68D969BB689B681A0256
:10531000FB681B680A43DA6101E00123FB75FB6847
:10532000002283F83C20FB7D18461837BD4680BD1F
:1053300080B485B000AF786039600023FB603B68C3
:105340000C2B31D801A252F823F000BF8153000882
:10535000A9530008A9530008A95300088B5300085B
:10536000A9530008A9530008A95300089553000841
:10537000A9530008A9530008A95300089F53000827
:105380007B681B685B6BFB600FE07B681B689B6B3B
:10539000FB600AE07B681B68DB6BFB6005E07B68F9
:1053A0001B681B6CFB6000E000BFFB6818461437ED
:1053B000BD4680BC704700BF80B483B000AF78604A
:1053C00000BF0C37BD4680BC704780B483B000AFCF
:1053D000786000BF0C37BD4680BC704780B483B096
:1053E00000AF786000BF0C37BD4680BC704780B40A
:1053F00083B000AF786000BF0C37BD4680BC7047FB
:1054000080B485B000AF786039607B681B68FB6052
:105410007B682F4A93420BD07B68B3F1804F07D053
:105420007B682C4A934203D07B682B4A934208D175
:10543000FB6823F07003FB603B685B68FA6813430A
:10544000FB607B68224A93420BD07B68B3F1804FAC
:1054500007D07B681F4A934203D07B681E4A934261
:1054600008D1FB6823F44073FB603B68DB68FA6893
:105470001343FB60FB6823F080023B685B691343C6
:10548000FB607B68FA681A603B689A687B68DA623E
:105490003B681A687B689A627B680D4A934203D125
:1054A0003B681A697B681A637B6801225A617B68D2
:1054B0001B6903F00103002B05D07B681B6923F0F7
:1054C00001027B681A6100BF1437BD4680BC70477B
:1054D000002C0140000400400008004080B487B068
:1054E00000AFF860B9607A603B60FB681B6A3B61A3
:1054F000FB681B6A23F00102FB681A62FB689B6968
:105500007B61FB681F4A93420BD0FB68B3F1804F6D
:1055100007D0FB681C4A934203D0FB681B4A9342A6
:1055200001D1012300E00023002B08D07B6923F088
:1055300003037B617A697B6813437B6103E07B69CA
:1055400043F001037B617B6923F0F0037B613B68DF
:105550001B01DBB27A6913437B613B6923F00A03C9
:105560003B61BB6803F00A033A6913433B61FB6884
:105570007A699A61FB683A691A6200BF1C37BD46B6
:1055800080BC7047002C014000040040000800402F
:1055900080B487B000AFF860B9607A603B60FB68A8
:1055A0001B6A7B61FB681B6A23F01002FB681A62AE
:1055B000FB689B693B613B6923F440733B617B68FB
:1055C0001B023A6913433B613B6923F470433B611F
:1055D0003B681B039BB23A6913433B617B6923F031
:1055E000A0037B61BB681B0103F0A0037A6913432E
:1055F0007B61FB683A699A61FB687A691A6200BF4D
:105600001C37BD4680BC704780B487B000AFF860DF
:10561000B9607A603B60FB681B6A7B61FB681B6A50
:1056200023F48072FB681A62FB68DB693B613B69AB
:1056300023F003033B613A697B6813433B613B6999
:1056400023F0F0033B613B681B01DBB23A69134373
:105650003B617B6923F400737B61BB681B0203F42D
:1056600000737A6913437B61FB683A69DA61FB680E
:105670007A691A6200BF1C37BD4680BC704780B48F
:1056800087B000AFF860B9607A603B60FB681B6A66
:105690007B61FB681B6A23F48052FB681A62FB681B
:1056A000DB693B613B6923F440733B617B681B0210
:1056B0003A6913433B613B6923F470433B613B68A8
:1056C0001B039BB23A6913433B617B6923F400538C
:1056D0007B61BB681B0303F400537A6913437B614E
:1056E000FB683A69DA61FB687A691A6200BF1C37A5
:1056F000BD4680BC704780B487B000AFF860B96029
:105700007A60BB6803F01F03012202FA03F37B6196
:10571000FB681A6A7B69DB431A40FB681A62FB6804
:105720001A6ABB6803F01F03796801FA03F31A438E
:10573000FB681A6200BF1C37BD4680BC7047000082
:1057400080B485B000AF786039607B6893F83C30F6
:10575000012B01D1022346E07B68012283F83C2023
:105760007B68022283F83D207B681B685B68FB60D6
:105770007B681B689B68BB60FB6823F07003FB6061
:105780003B681B68FA681343FB607B681B68FA6818
:105790005A607B681B68164A93420ED07B681B6870
:1057A000B3F1804F09D07B681B68124A934204D042
:1057B0007B681B68104A93420CD1BB6823F08003BE
:1057C000BB603B685B68BA681343BB607B681B685F
:1057D000BA689A607B68012283F83D207B680022CA
:1057E00083F83C20002318461437BD4680BC704720
:1057F000002C0140000400400008004080B483B049
:1058000000AF786000BF0C37BD4680BC704780B4E5
:1058100083B000AF786000BF0C37BD4680BC7047D6
:10582000014B1868704700BF1800002070B50026B3
:105830000C4D0D4C641BA410A64209D100F090FC45
:1058400000260A4D0A4C641BA410A64205D170BD67
:1058500055F8043B98470136EEE755F8043B984766
:105860000136F2E75C6700085C6700085C670008C7
:10587000606700080A44914200F1FF3300D170478D
:1058800010B511F8014B914203F8014FF9D110BD49
:1058900003460244934200D1704703F8011BF9E725
:1058A0000CB430B5174B0C1E1D689DB008DA8B2365
:1058B0004FF0FF302B601DB0BDE8304002B07047A4
:1058C0004FF40273ADF814300CBF234604F1FF33DC
:1058D000049307934FF6FF7302900690ADF81630CD
:1058E000284621AB209A02A9019300F089F8431CB5
:1058F000BCBF8B232B60002CDDD00022029B1A70D2
:10590000D9E700BF180000200EB46FF0004100B5C9
:105910009CB01DAB0290069007910491084809497C
:1059200053F8042B0591006802A9019300F068F870
:105930000022029B1A701CB05DF804EB03B07047A4
:10594000180000200802FFFF2DE9F0478E6882460C
:105950009E420C4690461F4638D88A8912F4906FB2
:1059600032D0256809690133A5EB010965694B440B
:1059700005EB450505EBD5756D109D4238BF1D46FD
:10598000530531D5294600F045FB064650B90C2396
:105990004FF0FF30CAF80030A38943F04003A381E1
:1059A000BDE8F0874A462169FFF764FFA38923F425
:1059B000906343F08003A38126614E4426603E46F7
:1059C0006561A5EB0905A560BE4200D93E46324699
:1059D0004146206800F0B8FAA36822689B1B324455
:1059E0000020A3602260DBE72A4600F06DFB06463C
:1059F0000028E1D15046216900F0C0FAC7E7000055
:105A00002DE9F04F98468B8907461B060D46144634
:105A10009DB00ED50B6963B9402100F0FBFA2860F8
:105A2000286120B90C233B604FF0FF30D1E04023C8
:105A30006B610023099320238DF8293030234FF028
:105A40000109CDF80C80DFF8A4818DF82A302346B7
:105A50009A4613F8012B0AB1252AF9D1BAEB040BA7
:105A60000BD05B46224629463846FFF76DFF0130D2
:105A700000F0AA80099A5A4409929AF80030002B43
:105A800000F0A28000234FF0FF32CDE905230AF198
:105A9000010A049307938DF853301A935446052254
:105AA00014F8011B514800F041FA049AD8B9D00605
:105AB00044BF20238DF85330110744BF2B238DF8AA
:105AC00053309AF800302A2B15D0544600204FF05E
:105AD0000A0C079A214611F8013B303B092B4ED99D
